{
  "address": "0x82E63e9F4de147BDDD25bB00535d8245B432592C",
  "abi": [
    {
      "inputs": [
        {
          "internalType": "contract IERC20",
          "name": "_token",
          "type": "address"
        },
        {
          "internalType": "uint256",
          "name": "_stakeDurationDays",
          "type": "uint256"
        },
        {
          "internalType": "uint256",
          "name": "_yieldRate",
          "type": "uint256"
        },
        {
          "internalType": "uint256",
          "name": "_earlyUnstakeFee",
          "type": "uint256"
        }
      ],
      "stateMutability": "nonpayable",
      "type": "constructor"
    },
    {
      "anonymous": false,
      "inputs": [
        {
          "indexed": true,
          "internalType": "address",
          "name": "user",
          "type": "address"
        },
        {
          "indexed": true,
          "internalType": "uint256",
          "name": "stakeId",
          "type": "uint256"
        },
        {
          "indexed": false,
          "internalType": "uint256",
          "name": "amount",
          "type": "uint256"
        },
        {
          "indexed": false,
          "internalType": "uint256",
          "name": "harvestTime",
          "type": "uint256"
        }
      ],
      "name": "Harvest",
      "type": "event"
    },
    {
      "anonymous": false,
      "inputs": [
        {
          "indexed": true,
          "internalType": "address",
          "name": "previousOwner",
          "type": "address"
        },
        {
          "indexed": true,
          "internalType": "address",
          "name": "newOwner",
          "type": "address"
        }
      ],
      "name": "OwnershipTransferred",
      "type": "event"
    },
    {
      "anonymous": false,
      "inputs": [
        {
          "indexed": true,
          "internalType": "address",
          "name": "user",
          "type": "address"
        },
        {
          "indexed": true,
          "internalType": "uint256",
          "name": "stakeId",
          "type": "uint256"
        },
        {
          "indexed": false,
          "internalType": "uint256",
          "name": "amount",
          "type": "uint256"
        },
        {
          "indexed": false,
          "internalType": "uint256",
          "name": "startTime",
          "type": "uint256"
        },
        {
          "indexed": false,
          "internalType": "uint256",
          "name": "endTime",
          "type": "uint256"
        }
      ],
      "name": "Stake",
      "type": "event"
    },
    {
      "anonymous": false,
      "inputs": [
        {
          "indexed": true,
          "internalType": "address",
          "name": "user",
          "type": "address"
        },
        {
          "indexed": true,
          "internalType": "uint256",
          "name": "stakeId",
          "type": "uint256"
        },
        {
          "indexed": false,
          "internalType": "uint256",
          "name": "amount",
          "type": "uint256"
        },
        {
          "indexed": false,
          "internalType": "uint256",
          "name": "startTime",
          "type": "uint256"
        },
        {
          "indexed": false,
          "internalType": "uint256",
          "name": "endTime",
          "type": "uint256"
        },
        {
          "indexed": false,
          "internalType": "bool",
          "name": "early",
          "type": "bool"
        }
      ],
      "name": "Unstake",
      "type": "event"
    },
    {
      "inputs": [],
      "name": "allocatedTokens",
      "outputs": [
        {
          "internalType": "uint256",
          "name": "",
          "type": "uint256"
        }
      ],
      "stateMutability": "view",
      "type": "function"
    },
    {
      "inputs": [],
      "name": "earlyUnstakeFee",
      "outputs": [
        {
          "internalType": "uint256",
          "name": "",
          "type": "uint256"
        }
      ],
      "stateMutability": "view",
      "type": "function"
    },
    {
      "inputs": [
        {
          "internalType": "address",
          "name": "_userAddress",
          "type": "address"
        },
        {
          "internalType": "uint256",
          "name": "_stakeId",
          "type": "uint256"
        }
      ],
      "name": "getStake",
      "outputs": [
        {
          "internalType": "bool",
          "name": "staked",
          "type": "bool"
        },
        {
          "internalType": "uint256",
          "name": "stakedAmount",
          "type": "uint256"
        },
        {
          "internalType": "uint256",
          "name": "startTime",
          "type": "uint256"
        },
        {
          "internalType": "uint256",
          "name": "endTime",
          "type": "uint256"
        },
        {
          "internalType": "uint256",
          "name": "totalYield",
          "type": "uint256"
        },
        {
          "internalType": "uint256",
          "name": "harvestedYield",
          "type": "uint256"
        },
        {
          "internalType": "uint256",
          "name": "lastHarvestTime",
          "type": "uint256"
        },
        {
          "internalType": "uint256",
          "name": "harvestableYield",
          "type": "uint256"
        }
      ],
      "stateMutability": "view",
      "type": "function"
    },
    {
      "inputs": [
        {
          "internalType": "address",
          "name": "_userAddress",
          "type": "address"
        }
      ],
      "name": "getStakesLength",
      "outputs": [
        {
          "internalType": "uint256",
          "name": "",
          "type": "uint256"
        }
      ],
      "stateMutability": "view",
      "type": "function"
    },
    {
      "inputs": [
        {
          "internalType": "uint256",
          "name": "_stakeId",
          "type": "uint256"
        }
      ],
      "name": "harvest",
      "outputs": [],
      "stateMutability": "nonpayable",
      "type": "function"
    },
    {
      "inputs": [],
      "name": "owner",
      "outputs": [
        {
          "internalType": "address",
          "name": "",
          "type": "address"
        }
      ],
      "stateMutability": "view",
      "type": "function"
    },
    {
      "inputs": [],
      "name": "renounceOwnership",
      "outputs": [],
      "stateMutability": "nonpayable",
      "type": "function"
    },
    {
      "inputs": [
        {
          "internalType": "uint256",
          "name": "_amount",
          "type": "uint256"
        }
      ],
      "name": "stake",
      "outputs": [],
      "stateMutability": "nonpayable",
      "type": "function"
    },
    {
      "inputs": [],
      "name": "stakeDurationDays",
      "outputs": [
        {
          "internalType": "uint256",
          "name": "",
          "type": "uint256"
        }
      ],
      "stateMutability": "view",
      "type": "function"
    },
    {
      "inputs": [],
      "name": "stakedTokens",
      "outputs": [
        {
          "internalType": "uint256",
          "name": "",
          "type": "uint256"
        }
      ],
      "stateMutability": "view",
      "type": "function"
    },
    {
      "inputs": [
        {
          "internalType": "address",
          "name": "",
          "type": "address"
        },
        {
          "internalType": "uint256",
          "name": "",
          "type": "uint256"
        }
      ],
      "name": "stakes",
      "outputs": [
        {
          "internalType": "bool",
          "name": "staked",
          "type": "bool"
        },
        {
          "internalType": "uint256",
          "name": "stakedAmount",
          "type": "uint256"
        },
        {
          "internalType": "uint256",
          "name": "startTime",
          "type": "uint256"
        },
        {
          "internalType": "uint256",
          "name": "endTime",
          "type": "uint256"
        },
        {
          "internalType": "uint256",
          "name": "totalYield",
          "type": "uint256"
        },
        {
          "internalType": "uint256",
          "name": "harvestedYield",
          "type": "uint256"
        },
        {
          "internalType": "uint256",
          "name": "lastHarvestTime",
          "type": "uint256"
        }
      ],
      "stateMutability": "view",
      "type": "function"
    },
    {
      "inputs": [],
      "name": "stakesOpen",
      "outputs": [
        {
          "internalType": "bool",
          "name": "",
          "type": "bool"
        }
      ],
      "stateMutability": "view",
      "type": "function"
    },
    {
      "inputs": [],
      "name": "start",
      "outputs": [],
      "stateMutability": "nonpayable",
      "type": "function"
    },
    {
      "inputs": [],
      "name": "stop",
      "outputs": [],
      "stateMutability": "nonpayable",
      "type": "function"
    },
    {
      "inputs": [],
      "name": "token",
      "outputs": [
        {
          "internalType": "contract IERC20",
          "name": "",
          "type": "address"
        }
      ],
      "stateMutability": "view",
      "type": "function"
    },
    {
      "inputs": [
        {
          "internalType": "address",
          "name": "newOwner",
          "type": "address"
        }
      ],
      "name": "transferOwnership",
      "outputs": [],
      "stateMutability": "nonpayable",
      "type": "function"
    },
    {
      "inputs": [],
      "name": "unallocatedTokens",
      "outputs": [
        {
          "internalType": "uint256",
          "name": "",
          "type": "uint256"
        }
      ],
      "stateMutability": "view",
      "type": "function"
    },
    {
      "inputs": [
        {
          "internalType": "uint256",
          "name": "_stakeId",
          "type": "uint256"
        }
      ],
      "name": "unstake",
      "outputs": [],
      "stateMutability": "nonpayable",
      "type": "function"
    },
    {
      "inputs": [
        {
          "internalType": "address",
          "name": "_to",
          "type": "address"
        },
        {
          "internalType": "uint256",
          "name": "_amount",
          "type": "uint256"
        }
      ],
      "name": "withdrawUnallocatedTokens",
      "outputs": [],
      "stateMutability": "nonpayable",
      "type": "function"
    },
    {
      "inputs": [],
      "name": "yieldRate",
      "outputs": [
        {
          "internalType": "uint256",
          "name": "",
          "type": "uint256"
        }
      ],
      "stateMutability": "view",
      "type": "function"
    }
  ],
  "transactionHash": "0xf195ffebdfdb4fa69c0120180f414f402e395cad06e4c9059f706ba4c2a77f41",
  "args": [
    "0x3a96F852Aa269bC55f491908168d75b023DbdeFB",
    3,
    1105,
    1105
  ],
  "solcInputHash": "d41372e44e3c6aba9e00fecba0c293df",
  "bytecode": "0x608060405234801561001057600080fd5b506040516113bd3803806113bd83398101604081905261002f916100ba565b6100383361006a565b600180546001600160a01b0319166001600160a01b039590951694909417909355600491909155600655600555610105565b600080546001600160a01b038381166001600160a01b0319831681178455604051919092169283917f8be0079c531659141344cd1fd0a4f28419497f9722a3daafe3b4186f6b6457e09190a35050565b600080600080608085870312156100d057600080fd5b84516001600160a01b03811681146100e757600080fd5b60208601516040870151606090970151919890975090945092505050565b6112a9806101146000396000f3fe608060405234801561001057600080fd5b506004361061012b5760003560e01c80638da5cb5b116100ad578063cb913c8211610071578063cb913c8214610263578063cfd4766314610287578063ddc63262146102d7578063f2fde38b146102ea578063fc0c546a146102fd57600080fd5b80638da5cb5b146101f1578063909767d914610216578063a694fc3a1461023f578063be9a655514610252578063cb6290091461025a57600080fd5b8063296ee19f116100f4578063296ee19f1461017b5780632e17de7814610183578063584b62a1146101965780636999ac93146101e0578063715018a6146101e957600080fd5b80622f9569146101305780630711306d1461014c57806307da68f51461015557806313f063091461015f578063245acab214610172575b600080fd5b61013960075481565b6040519081526020015b60405180910390f35b61013960055481565b61015d610310565b005b61015d61016d3660046110a9565b610352565b61013960045481565b6101396103ee565b61015d6101913660046110f5565b610487565b6101a96101a43660046110a9565b610708565b6040805197151588526020880196909652948601939093526060850191909152608084015260a083015260c082015260e001610143565b61013960065481565b61015d610766565b6000546001600160a01b03165b6040516001600160a01b039091168152602001610143565b61013961022436600461108e565b6001600160a01b031660009081526002602052604090205490565b61015d61024d3660046110f5565b61079c565b61015d6109c1565b61013960035481565b60005461027790600160a01b900460ff1681565b6040519015158152602001610143565b61029a6102953660046110a9565b610a00565b6040805198151589526020890197909752958701949094526060860192909252608085015260a084015260c083015260e082015261010001610143565b61015d6102e53660046110f5565b610b1a565b61015d6102f836600461108e565b610c60565b6001546101fe906001600160a01b031681565b6000546001600160a01b031633146103435760405162461bcd60e51b815260040161033a90611176565b60405180910390fd5b6000805460ff60a01b19169055565b6000546001600160a01b0316331461037c5760405162461bcd60e51b815260040161033a90611176565b806103856103ee565b10156103d35760405162461bcd60e51b815260206004820152601c60248201527f4e6f7420656e6f75676820756e616c6c6f6361746564546f6b656e7300000000604482015260640161033a565b6001546103ea906001600160a01b03168383610cfb565b5050565b6007546003546001546040516370a0823160e01b815230600482015260009361048293909261047c926001600160a01b03909116906370a082319060240160206040518083038186803b15801561044457600080fd5b505afa158015610458573d6000803e3d6000fd5b505050506040513d601f19601f8201168201806040525081019061047c919061110e565b90610d63565b905090565b600080600080600080600061049c3389610a00565b9750509650965096509650965096506000876104ed5760405162461bcd60e51b815260206004820152601060248201526f556e7374616b656420616c726561647960801b604482015260640161033a565b844211156105645760015461050c906001600160a01b03163389610cfb565b33600090815260026020526040812080548b90811061052d5761052d61125d565b60009182526020909120600790910201805460ff19169115159190911790556003546105599088610d63565b6003555060006106b0565b60006105876127106105816005548b610d7690919063ffffffff16565b90610d82565b905060006105958983610d63565b6001549091506105af906001600160a01b03163383610cfb565b60006105bb8686610d8e565b90506105d36105ca8883610d63565b60075490610d63565b60075533600090815260026020526040812080548e9081106105f7576105f761125d565b60009182526020909120600790910201805460ff19169115159190911790554233600090815260026020526040902080548e9081106106385761063861125d565b9060005260206000209060070201600301819055508060026000336001600160a01b03166001600160a01b031681526020019081526020016000208d815481106106845761068461125d565b60009182526020909120600460079092020101556003546106a5908b610d63565b600355506001925050505b60408051888152602081018890529081018690528115156060820152899033907fc27678b8d9d59c0688159890347f79df5b543dff3fcad311f8142181a3661c149060800160405180910390a3505050505050505050565b6002602052816000526040600020818154811061072457600080fd5b6000918252602090912060079091020180546001820154600283015460038401546004850154600586015460069096015460ff90951697509295509093909287565b6000546001600160a01b031633146107905760405162461bcd60e51b815260040161033a90611176565b61079a6000610d9a565b565b600054600160a01b900460ff166107e75760405162461bcd60e51b815260206004820152600f60248201526e39ba30b5b29d103737ba1037b832b760891b604482015260640161033a565b600061080461271061058160065485610d7690919063ffffffff16565b90508061080f6103ee565b10156108745760405162461bcd60e51b815260206004820152602e60248201527f7374616b653a206e6f7420656e6f75676820616c6c6f7474656420746f6b656e60448201526d1cc81d1bc81c185e481e5a595b1960921b606482015260840161033a565b60015461088c906001600160a01b0316333085610dea565b60045442906000906108ac906108a59062015180610d76565b4290610d8e565b336000908152600260208181526040808420815160e08101835260018082528185018c81529382018a815260608301898152608084018d815260a085018a815260c086018e815287548087018955978c5298909a2094516007968702909501805460ff1916951515959095178555955192840192909255519582019590955593516003850155905160048401559251600583015551600690910155549091506109559084610d8e565b6007556003546109659085610d8e565b60035533600090815260026020526040902054604080518681526020810185905290810183905233907f2720efa4b2dd4f3f8a347da3cbd290a522e9432da9072c5b8e6300496fdde2829060600160405180910390a350505050565b6000546001600160a01b031633146109eb5760405162461bcd60e51b815260040161033a90611176565b6000805460ff60a01b1916600160a01b179055565b6000806000806000806000806000600260008c6001600160a01b03166001600160a01b031681526020019081526020016000208a81548110610a4457610a4461125d565b60009182526020918290206040805160e0810182526007909302909101805460ff16151580845260018201549484018590526002820154928401839052600382015460608501819052600483015460808601819052600584015460a0870181905260069094015460c08701819052929f50959d50929b50919950929750919550909350905085610ad14290565b1115610ae857610ae18585610d63565b9150610b0c565b610b09610af58789610d63565b610581610b02864261047c565b8890610d76565b91505b509295985092959890939650565b600080610b273384610a00565b975050965050505050508060001415610b825760405162461bcd60e51b815260206004820152601860248201527f6861727665737461626c655969656c64206973207a65726f0000000000000000604482015260640161033a565b600154610b99906001600160a01b03163383610cfb565b600754610ba69082610d63565b600755610bb38282610d8e565b336000908152600260205260409020805485908110610bd457610bd461125d565b600091825260209091206005600790920201015542336000908152600260205260409020805485908110610c0a57610c0a61125d565b600091825260209091206007909102016006015582337f4534f107610758c3931de9ad1e176476fcfb8c74adf920167e1d54ee84fcfe7683426040805192835260208301919091520160405180910390a3505050565b6000546001600160a01b03163314610c8a5760405162461bcd60e51b815260040161033a90611176565b6001600160a01b038116610cef5760405162461bcd60e51b815260206004820152602660248201527f4f776e61626c653a206e6577206f776e657220697320746865207a65726f206160448201526564647265737360d01b606482015260840161033a565b610cf881610d9a565b50565b6040516001600160a01b038316602482015260448101829052610d5e90849063a9059cbb60e01b906064015b60408051601f198184030181529190526020810180516001600160e01b03166001600160e01b031990931692909217909152610e28565b505050565b6000610d6f8284611204565b9392505050565b6000610d6f82846111e5565b6000610d6f82846111c3565b6000610d6f82846111ab565b600080546001600160a01b038381166001600160a01b0319831681178455604051919092169283917f8be0079c531659141344cd1fd0a4f28419497f9722a3daafe3b4186f6b6457e09190a35050565b6040516001600160a01b0380851660248301528316604482015260648101829052610e229085906323b872dd60e01b90608401610d27565b50505050565b6000610e7d826040518060400160405280602081526020017f5361666545524332303a206c6f772d6c6576656c2063616c6c206661696c6564815250856001600160a01b0316610efa9092919063ffffffff16565b805190915015610d5e5780806020019051810190610e9b91906110d3565b610d5e5760405162461bcd60e51b815260206004820152602a60248201527f5361666545524332303a204552433230206f7065726174696f6e20646964206e6044820152691bdd081cdd58d8d9595960b21b606482015260840161033a565b6060610f098484600085610f11565b949350505050565b606082471015610f725760405162461bcd60e51b815260206004820152602660248201527f416464726573733a20696e73756666696369656e742062616c616e636520666f6044820152651c8818d85b1b60d21b606482015260840161033a565b843b610fc05760405162461bcd60e51b815260206004820152601d60248201527f416464726573733a2063616c6c20746f206e6f6e2d636f6e7472616374000000604482015260640161033a565b600080866001600160a01b03168587604051610fdc9190611127565b60006040518083038185875af1925050503d8060008114611019576040519150601f19603f3d011682016040523d82523d6000602084013e61101e565b606091505b509150915061102e828286611039565b979650505050505050565b60608315611048575081610d6f565b8251156110585782518084602001fd5b8160405162461bcd60e51b815260040161033a9190611143565b80356001600160a01b038116811461108957600080fd5b919050565b6000602082840312156110a057600080fd5b610d6f82611072565b600080604083850312156110bc57600080fd5b6110c583611072565b946020939093013593505050565b6000602082840312156110e557600080fd5b81518015158114610d6f57600080fd5b60006020828403121561110757600080fd5b5035919050565b60006020828403121561112057600080fd5b5051919050565b6000825161113981846020870161121b565b9190910192915050565b602081526000825180602084015261116281604085016020870161121b565b601f01601f19169190910160400192915050565b6020808252818101527f4f776e61626c653a2063616c6c6572206973206e6f7420746865206f776e6572604082015260600190565b600082198211156111be576111be611247565b500190565b6000826111e057634e487b7160e01b600052601260045260246000fd5b500490565b60008160001904831182151516156111ff576111ff611247565b500290565b60008282101561121657611216611247565b500390565b60005b8381101561123657818101518382015260200161121e565b83811115610e225750506000910152565b634e487b7160e01b600052601160045260246000fd5b634e487b7160e01b600052603260045260246000fdfea2646970667358221220f7251e153520845957c1159bd5d24d43d174330c4dee0a0adb1efab4df91e82264736f6c63430008060033",
  "devdoc": {
    "kind": "dev",
    "methods": {
      "constructor": {
        "details": "the constructor arguments:",
        "params": {
          "_earlyUnstakeFee": "fee for unstaking before stake expiration",
          "_stakeDurationDays": "the stake duration in days",
          "_token": "address of token - the same accepted for staking and used to pay rewards",
          "_yieldRate": "reward rate in basis points (1/10000)"
        }
      },
      "getStake(address,uint256)": {
        "details": "get the individual stake parameters of the user",
        "params": {
          "_stakeId": "stake index",
          "_userAddress": "account of staker"
        },
        "returns": {
          "endTime": "the time when unstaking (w.o. penalties) becomes possible",
          "harvestableYield": "The unlocked part of yield available for harvesting",
          "harvestedYield": "The part of yield user harvested already",
          "lastHarvestTime": "The time of last harvest event",
          "staked": "the status of stake",
          "stakedAmount": "the number of deposited tokens",
          "startTime": "the moment of stake start",
          "totalYield": "entire yield for the stake (totally released on endTime)"
        }
      },
      "getStakesLength(address)": {
        "details": "get the count of user's stakes. Used on frontend to iterate and display individual stakes",
        "params": {
          "_userAddress": "account of staker"
        },
        "returns": {
          "_0": "stakes"
        }
      },
      "harvest(uint256)": {
        "details": "harvest accumulated rewards. Can be called many times.",
        "params": {
          "_stakeId": "Id of the stake"
        }
      },
      "owner()": {
        "details": "Returns the address of the current owner."
      },
      "renounceOwnership()": {
        "details": "Leaves the contract without owner. It will not be possible to call `onlyOwner` functions anymore. Can only be called by the current owner. NOTE: Renouncing ownership will leave the contract without an owner, thereby removing any functionality that is only available to the owner."
      },
      "stake(uint256)": {
        "details": "submit the stake",
        "params": {
          "_amount": "amount of tokens to be transferred from user's account"
        }
      },
      "start()": {
        "details": "start accepting new stakes. Called only by the owner"
      },
      "stop()": {
        "details": "stop accepting new stakes. Called only by the owner"
      },
      "transferOwnership(address)": {
        "details": "Transfers ownership of the contract to a new account (`newOwner`). Can only be called by the current owner."
      },
      "unallocatedTokens()": {
        "details": "get the amount of available tokens neither staked nor allocated for rewards",
        "returns": {
          "_0": "amount of unallocated tokens"
        }
      },
      "unstake(uint256)": {
        "details": "withdraw the `body` of user's stake. Can be called only once",
        "params": {
          "_stakeId": "Id of the stake"
        }
      },
      "withdrawUnallocatedTokens(address,uint256)": {
        "details": "the owner is able to withdraw excess tokens to collect early unstake fees or to reuse unused funds suitable for assets rebalancing between staking contracts.",
        "params": {
          "_amount": "amount of tokens in atto (1e-18) units",
          "_to": "address who will receive the funds"
        }
      }
    },
    "version": 1
  },
  "userdoc": {
    "kind": "user",
    "methods": {},
    "version": 1
  },
  "storageLayout": {
    "storage": [
      {
        "astId": 7,
        "contract": "contracts/FixedStaking.sol:FixedStaking",
        "label": "_owner",
        "offset": 0,
        "slot": "0",
        "type": "t_address"
      },
      {
        "astId": 1575,
        "contract": "contracts/FixedStaking.sol:FixedStaking",
        "label": "stakesOpen",
        "offset": 20,
        "slot": "0",
        "type": "t_bool"
      },
      {
        "astId": 1578,
        "contract": "contracts/FixedStaking.sol:FixedStaking",
        "label": "token",
        "offset": 0,
        "slot": "1",
        "type": "t_contract(IERC20)181"
      },
      {
        "astId": 1584,
        "contract": "contracts/FixedStaking.sol:FixedStaking",
        "label": "stakes",
        "offset": 0,
        "slot": "2",
        "type": "t_mapping(t_address,t_array(t_struct(StakeInfo)1573_storage)dyn_storage)"
      },
      {
        "astId": 1586,
        "contract": "contracts/FixedStaking.sol:FixedStaking",
        "label": "stakedTokens",
        "offset": 0,
        "slot": "3",
        "type": "t_uint256"
      },
      {
        "astId": 1588,
        "contract": "contracts/FixedStaking.sol:FixedStaking",
        "label": "stakeDurationDays",
        "offset": 0,
        "slot": "4",
        "type": "t_uint256"
      },
      {
        "astId": 1590,
        "contract": "contracts/FixedStaking.sol:FixedStaking",
        "label": "earlyUnstakeFee",
        "offset": 0,
        "slot": "5",
        "type": "t_uint256"
      },
      {
        "astId": 1592,
        "contract": "contracts/FixedStaking.sol:FixedStaking",
        "label": "yieldRate",
        "offset": 0,
        "slot": "6",
        "type": "t_uint256"
      },
      {
        "astId": 1594,
        "contract": "contracts/FixedStaking.sol:FixedStaking",
        "label": "allocatedTokens",
        "offset": 0,
        "slot": "7",
        "type": "t_uint256"
      }
    ],
    "types": {
      "t_address": {
        "encoding": "inplace",
        "label": "address",
        "numberOfBytes": "20"
      },
      "t_array(t_struct(StakeInfo)1573_storage)dyn_storage": {
        "base": "t_struct(StakeInfo)1573_storage",
        "encoding": "dynamic_array",
        "label": "struct FixedStaking.StakeInfo[]",
        "numberOfBytes": "32"
      },
      "t_bool": {
        "encoding": "inplace",
        "label": "bool",
        "numberOfBytes": "1"
      },
      "t_contract(IERC20)181": {
        "encoding": "inplace",
        "label": "contract IERC20",
        "numberOfBytes": "20"
      },
      "t_mapping(t_address,t_array(t_struct(StakeInfo)1573_storage)dyn_storage)": {
        "encoding": "mapping",
        "key": "t_address",
        "label": "mapping(address => struct FixedStaking.StakeInfo[])",
        "numberOfBytes": "32",
        "value": "t_array(t_struct(StakeInfo)1573_storage)dyn_storage"
      },
      "t_struct(StakeInfo)1573_storage": {
        "encoding": "inplace",
        "label": "struct FixedStaking.StakeInfo",
        "members": [
          {
            "astId": 1560,
            "contract": "contracts/FixedStaking.sol:FixedStaking",
            "label": "staked",
            "offset": 0,
            "slot": "0",
            "type": "t_bool"
          },
          {
            "astId": 1562,
            "contract": "contracts/FixedStaking.sol:FixedStaking",
            "label": "stakedAmount",
            "offset": 0,
            "slot": "1",
            "type": "t_uint256"
          },
          {
            "astId": 1564,
            "contract": "contracts/FixedStaking.sol:FixedStaking",
            "label": "startTime",
            "offset": 0,
            "slot": "2",
            "type": "t_uint256"
          },
          {
            "astId": 1566,
            "contract": "contracts/FixedStaking.sol:FixedStaking",
            "label": "endTime",
            "offset": 0,
            "slot": "3",
            "type": "t_uint256"
          },
          {
            "astId": 1568,
            "contract": "contracts/FixedStaking.sol:FixedStaking",
            "label": "totalYield",
            "offset": 0,
            "slot": "4",
            "type": "t_uint256"
          },
          {
            "astId": 1570,
            "contract": "contracts/FixedStaking.sol:FixedStaking",
            "label": "harvestedYield",
            "offset": 0,
            "slot": "5",
            "type": "t_uint256"
          },
          {
            "astId": 1572,
            "contract": "contracts/FixedStaking.sol:FixedStaking",
            "label": "lastHarvestTime",
            "offset": 0,
            "slot": "6",
            "type": "t_uint256"
          }
        ],
        "numberOfBytes": "224"
      },
      "t_uint256": {
        "encoding": "inplace",
        "label": "uint256",
        "numberOfBytes": "32"
      }
    }
  }
}